:100000000C943E000C945B000C945B000C945B0021
:100010000C945B000C945B000C945B000C945B00F4
:100020000C945B000C945B000C945B000C945B00E4
:100030000C945B000C945B000C945B000C945B00D4
:100040000C945B000C945B000C945B000C945B00C4
:100050000C945B000C945B000C945B000C945B00B4
:100060000C945B000C945B000C945B000C945B00A4
:100070000C945B000C945B000C945B0011241FBE7D
:10008000CFEFD8E0DEBFCDBF11E0A0E0B1E0E8E502
:10009000F0E102C005900D92A032B107D9F711E04E
:1000A000A0E2B1E001C01D92A432B107E1F70E94C5
:1000B000FA030C942A080C94000021E230E0FC01C1
:1000C0003183208311B820E230E033832283089506
:1000D000FC0171836083FB011082FC015383428326
:1000E00008950895DC011296ED91FC91139780819B
:1000F0000895CF93DF93EC01CB01188219821A8205
:100100001B825D834C8318861986BA010E949F0367
:100110004C815D8160E081E00E94570380E190E0C6
:100120000E9432049F838E83DF91CF910895FC015A
:10013000868197810C94CA041F93CF93DF93EC01BF
:10014000162F2C813D81462F6B8181E00E94600338
:100150001A83DF91CF911F9108951F93CF93DF935F
:10016000EC01162F2C813D814A8181E00E946003C1
:100170001B83DF91CF911F910895FC01862F603280
:1001800040F4618364817581803108F0805D0C9456
:1001900092030895CF93DF93EC018C819D810E949F
:1001A0004B0318826981CE01DF91CF910C94BD0081
:1001B0004F925F926F927F928F929F92AF92BF9277
:1001C000CF92DF92EF92FF920F931F93CF93DF9323
:1001D0001F92CDB7DEB72C018B01B42E61157105CE
:1001E00009F47CC0CB0129830E94B4026C01F201A6
:1001F000A280938060E0C2010E949C0060E0C20186
:100200000E94AD002981222319F0C2010E94CA0078
:10021000FFE1FB1508F462C08B2D90E0A601552785
:1002200020E230E0281B390B241735070CF456C0A8
:100230008C2CF20164817581FFE0FB15E0F1840FE5
:10024000951F409724F080E1782E7B1801C07C2C0C
:100250008B2D0E949203602E7801F20164817581DA
:100260008E2D8619871530F4F70181917F010E9448
:100270009903F3CF80E40E949203781458F4F201BA
:1002800064817581F801E70DF11D80810E94990359
:100290007394F3CFF2016181C2010E94BD006A2D07
:1002A000C2010E949C00692DC2010E94AD00CB0CCE
:1002B000F201C08213C080E38B0D0E949203702E66
:1002C00078018E2D8719881528F7F20164817581D0
:1002D000F70181917F010E949903F3CF0F90DF9185
:1002E000CF911F910F91FF90EF90DF90CF90BF9033
:1002F000AF909F908F907F906F905F904F900895F8
:10030000FF920F931F93CF93DF93EC01862F8A0107
:100310006830A8F44115510591F06C817D81880FFA
:10032000880F880F0E948A0398E0F92E6C817D81E6
:10033000F80181918F010E949903FA94B9F7DF9136
:10034000CF911F910F91FF900895CF93DF93EC0110
:100350006115710521F020E048810E94D800CE018E
:10036000DF91CF9108950F931F93CF93DF9300D028
:10037000CDB7DEB78C011A8219826983BE016F5F27
:100380007F4F0E94A501C8010F900F90DF91CF9180
:100390001F910F910895CF93DF93EC017F936F939B
:1003A00086E091E09F938F938F818F938E818F93BF
:1003B0000E9459056E817F81CE010E94A5010F9098
:1003C0000F900F900F900F900F90CE01DF91CF9173
:1003D0000895CF93DF93EC017F936F9389E091E0D1
:1003E0009F938F938F818F938E818F930E94590556
:1003F0006E817F81CE010E94A5010F900F900F901A
:100400000F900F900F90CE01DF91CF910895CF9371
:10041000DF93EC011F926F938CE091E09F938F9399
:100420008F818F938E818F930E9459056E817F817A
:10043000CE010E94A5010F900F900F900F900F908A
:100440000F90CE01DF91CF9108950F931F93CF931B
:10045000DF93EC018B016115710561F0288581E066
:1004600028274985CE010E94D8008885882311F06D
:1004700018861986C801DF91CF911F910F910895B9
:10048000603220F4FC01618721E0208708950F93FA
:100490001F93CF93DF93EC018881062F861708F412
:1004A000082F801B888310E0101731F060E2CE0126
:1004B0000E94B3011F5FF8CF8881811B8883DF9181
:1004C000CF911F910F910895F894E89AE9E6F0E032
:1004D000808181608083789408951092C5008FECAC
:1004E0008093C400E2ECF0E0808186608083E1ECE0
:1004F000F0E080818861808308958091C00085FF4D
:10050000FCCF6093C60008958091C00087FFFCCFA8
:100510008091C60008958091C00087FF03C080913C
:10052000C600F9CF08954A990DC08FE19EE4019766
:10053000F1F700C0000089B182FB882780F991E0C3
:100540008927089580E0089549990CC08FE19EE4C1
:100550000197F1F700C0000089B18695817091E0A4
:100560008927089580E00895FC0131969F01281B9A
:10057000390B41914111FACFC9010895FF920F93B0
:100580001F93CF93DF93FC01CB011786009729F4CB
:1005900080E38687CF010E9619C0EF012F962EE0DB
:1005A000F22E042F10E0B8010E941E04DC01A15FAE
:1005B000BE4F8C918A93FA94CB01009711F0F11001
:1005C000F2CF8F2D90E001968E0F9F1FDF91CF917C
:1005D0001F910F91FF90089520E030E02817390710
:1005E00049F0EFECF7E03197F1F700C000002F5F22
:1005F0003F4FF4CF0895FC0180818062808384E0C6
:100600008A95F1F780818F7D80830895EF92FF9224
:100610000F931F93CF93DF9300D0CDB7DEB779014F
:1006200090E8899F80011124F90180818172808383
:100630008081262F30E094E0359527959A95E1F753
:10064000220F331F202B282B2083C7014A83698365
:100650000E94FB02F7018081817280838081698121
:100660006F70660F602B682B6083C7010E94FB02CE
:1006700080E04A81841731F0FAE1FA95F1F700C081
:100680008F5FF8CF0F900F90DF91CF911F910F9157
:10069000FF90EF9008959C0144EA61E080E00C94A3
:1006A00006039C0144EA62E080E00C9406039A0190
:1006B0006460880F862B44E0682F80E00C9406036A
:1006C0004860660F642B44E0849FC0011124682BAE
:1006D00044E080E00C9406039A0144E0649FB0017A
:1006E0001124606148E0849FC0011124682B44E01C
:1006F00080E00C9406039A0148E0649FB001112445
:10070000606240E1849FC0011124682B44E080E0D6
:100710000C9406039B01682F6F73606444E080E0D3
:100720000C9406039B01682F606844E080E00C9401
:1007300006039B0144E0682F81E00C940603CF93ED
:10074000DF93FC01EB018FE295E70197F1F700C021
:10075000000080818172808380818FEF8083888117
:100760008172888388818660888388818E7F888370
:10077000CB010E94FB0287E090E20197F1F700C0F5
:100780000000CE010E94FB0287EC90E00197F1F798
:1007900000C00000CE010E94FB029AE69A95F1F794
:1007A00000C0888181728883888184608883CE01BB
:1007B0000E94FB028AE68A95F1F700C09E0144E0A0
:1007C0006CE280E00E9406039E0140E060E080E071
:1007D0000E946003CE010E944B03AE0160E081E005
:1007E0000E9457039E0140E060E081E0DF91CF91DD
:1007F0000C946003CF93DF93CDB7DEB72F970FB67E
:10080000F894DEBF0FBECDBF48E250E067E270E073
:10081000CE0101960E947900CE010F960E946D02D2
:10082000CE010B960E945D00CE010B960E947200D5
:10083000682FCE010F960E947D02F6CFAA1BBB1B2C
:1008400051E107C0AA1FBB1FA617B70710F0A61BD0
:10085000B70B881F991F5A95A9F780959095BC01F1
:10086000CD010895CF93DF938230910510F482E09B
:1008700090E0E0912201F091230120E030E0A0E03F
:10088000B0E0309739F14081518148175907B8F0ED
:100890004817590771F482819381109729F01396B4
:1008A0009C938E9312972CC09093230180932201E6
:1008B00027C02115310531F04217530718F0A9015F
:1008C000DB0101C0EF019A01BD01DF010280F3816C
:1008D000E02DD7CF21153105F9F0281B390B243035
:1008E000310580F48A819B816115710521F0FB013E
:1008F0009383828304C09093230180932201FE019D
:10090000329644C0FE01E20FF31F8193919322506F
:100910003109398328833AC0209120013091210187
:10092000232B41F4209102013091030130932101E6
:100930002093200120910001309101012115310502
:1009400041F42DB73EB74091040150910501241B9D
:10095000350BE0912001F0912101E217F307A0F49B
:100960002E1B3F0B2817390778F0AC014E5F5F4F05
:100970002417350748F04E0F5F1F50932101409315
:1009800020018193919302C0E0E0F0E0CF01DF917C
:10099000CF910895CF93DF93009709F487C0FC01AE
:1009A000329713821282C0912201D09123012097A5
:1009B00081F420813181280F391F8091200190918D
:1009C00021018217930779F5F0932101E09320012B
:1009D0006DC0DE0120E030E0AE17BF0750F4129684
:1009E0004D915C9113979D014115510509F1DA0173
:1009F000F3CFB383A28340815181840F951F8A175F
:100A00009B0771F48D919C911197840F951F02960D
:100A10009183808312968D919C9113979383828307
:100A20002115310529F4F0932301E09322013EC002
:100A3000D9011396FC93EE9312974D915D91A40FFB
:100A4000B51FEA17FB0779F480819181840F951F08
:100A50000296D90111969C938E938281938113966D
:100A60009C938E931297E0E0F0E08A819B8100973F
:100A700019F0FE01EC01F9CFCE01029628813981EF
:100A8000820F931F209120013091210128173907EF
:100A900069F4309729F4109223011092220102C0C8
:100AA00013821282D0932101C0932001DF91CF9154
:100AB0000895AEE0B0E0EFE5F5E00C9401080D8993
:100AC0001E8986E08C831A8309838FEF9FE79E83BC
:100AD0008D83AE01475E5F4F6F89788DCE010196A1
:100AE0000E947B05EF81F885E00FF11F10822E96A2
:100AF000E4E00C941D08ACE0B0E0E1E8F5E00C9413
:100B0000F3077C016B018A01FC0117821682838145
:100B100081FFBDC1CE0101964C01F7019381F60121
:100B200093FD859193FF81916F01882309F4ABC1F7
:100B3000853239F493FD859193FF81916F01853260
:100B400029F4B70190E00E946307E7CF512C312CC4
:100B500020E02032A0F48B3269F030F4803259F07A
:100B6000833269F420612CC08D3239F0803339F43E
:100B7000216026C02260246023C0286021C027FD98
:100B800027C030ED380F3A3078F426FF06C0FAE07F
:100B90005F9E300D1124532E13C08AE0389E300D15
:100BA0001124332E20620CC08E3221F426FD6BC13D
:100BB000206406C08C3611F4206802C0883641F4E7
:100BC000F60193FD859193FF81916F018111C1CF52
:100BD000982F9F7D9554933028F40C5F1F4FFFE3AF
:100BE000F9830DC0833631F0833771F0833509F016
:100BF0005BC022C0F801808189830E5F1F4F4424AF
:100C00004394512C540115C03801F2E06F0E711C51
:100C1000F801A080B18026FF03C0652D70E002C0FE
:100C20006FEF7FEFC5012C870E9458072C018301CD
:100C30002C852F77222E17C03801F2E06F0E711C21
:100C4000F801A080B18026FF03C0652D70E002C0CE
:100C50006FEF7FEFC5012C870E944D072C012C857B
:100C60002068222E830123FC1BC0832D90E04816B0
:100C70005906B0F4B70180E290E00E9463073A940D
:100C8000F4CFF50127FC859127FE81915F01B70123
:100C900090E00E94630731103A94F1E04F1A510836
:100CA0004114510471F7E5C0843611F0893639F5E5
:100CB000F80127FF07C060817181828193810C5FF9
:100CC0001F4F08C060817181882777FD8095982F1C
:100CD0000E5F1F4F2F76B22E97FF09C0909580951B
:100CE000709561957F4F8F4F9F4F2068B22E2AE0FD
:100CF00030E0A4010E949507A82EA81844C08537AB
:100D000029F42F7EB22E2AE030E025C0F22FF97FA1
:100D1000BF2E8F36C1F018F4883579F0B4C0803713
:100D200019F0883721F0AFC02F2F2061B22EB4FE0A
:100D30000DC08B2D8460B82E09C024FF0AC09F2FE0
:100D40009660B92E06C028E030E005C020E130E012
:100D500002C020E132E0F801B7FE07C06081718176
:100D6000828193810C5F1F4F06C06081718180E09A
:100D700090E00E5F1F4FA4010E949507A82EA818AF
:100D8000FB2DFF77BF2EB6FE0BC02B2D2E7FA5149B
:100D900050F4B4FE0AC0B2FC08C02B2D2E7E05C054
:100DA0007A2C2B2D03C07A2C01C0752C24FF0DC08A
:100DB000FE01EA0DF11D8081803311F4297E09C006
:100DC00022FF06C07394739404C0822F867809F0C2
:100DD000739423FD13C020FF06C05A2C731418F41B
:100DE000530C5718732C731468F4B70180E290E029
:100DF0002C870E94630773942C85F5CF731410F42D
:100E0000371801C0312C24FF12C0B70180E390E0F5
:100E10002C870E9463072C8522FF17C021FF03C087
:100E200088E590E002C088E790E0B7010CC0822F0F
:100E3000867859F021FD02C080E201C08BE227FDD7
:100E40008DE2B70190E00E946307A51438F4B70162
:100E500080E390E00E9463075A94F7CFAA94F401CC
:100E6000EA0DF11D8081B70190E00E946307A11097
:100E7000F5CF332009F451CEB70180E290E00E9413
:100E800063073A94F6CFF7018681978102C08FEF0E
:100E90009FEF2C96E2E10C940F08FC010590615045
:100EA00070400110D8F7809590958E0F9F1F089580
:100EB000FC016150704001900110D8F78095909529
:100EC0008E0F9F1F08950F931F93CF93DF93182FBB
:100ED000092FEB018B8181FD03C08FEF9FEF20C0B5
:100EE00082FF10C04E815F812C813D8142175307E4
:100EF0007CF4E881F9819F012F5F3F4F398328837C
:100F0000108306C0E885F985812F0995892B29F77B
:100F10002E813F812F5F3F4F3F832E83812F902F64
:100F2000DF91CF911F910F910895FA01AA272830E0
:100F300051F1203181F1E8946F936E7F6E5F7F4FA6
:100F40008F4F9F4FAF4FB1E03ED0B4E03CD0670F22
:100F5000781F891F9A1FA11D680F791F8A1F911D75
:100F6000A11D6A0F711D811D911DA11D20D009F4C5
:100F700068943F912AE0269F11243019305D319307
:100F8000DEF6CF010895462F4770405D4193B3E0F0
:100F90000FD0C9F7F6CF462F4F70405D4A3318F097
:100FA000495D31FD4052419302D0A9F7EACFB4E048
:100FB000A6959795879577956795BA95C9F7009700
:100FC0006105710508959B01AC010A2E06945795A1
:100FD000479537952795BA95C9F7620F731F841FF8
:100FE000951FA01D08952F923F924F925F926F928E
:100FF0007F928F929F92AF92BF92CF92DF92EF92A9
:10100000FF920F931F93CF93DF93CDB7DEB7CA1B29
:10101000DB0B0FB6F894DEBF0FBECDBF09942A8854
:10102000398848885F846E847D848C849B84AA84FC
:10103000B984C884DF80EE80FD800C811B81AA8189
:10104000B981CE0FD11D0FB6F894DEBF0FBECDBF54
:08105000ED010895F894FFCFB3
:101058000000240120002575002569002563003063
:101068003132333435363738396162636465660046
:00000001FF
